:100000000C94A1000C94C9000C94C9000C94C90074
:100010000C94C9000C94C9000C94C9000C94C9003C
:100020000C94C9000C94C9000C94C9000C94C9002C
:100030000C94C9000C94C9000C94C9000C94C9001C
:100040000C94740B0C94C9000C94E40B0C94BE0B30
:100050000C94C9000C94C9000C94C9000C94C900FC
:100060000C94C9000C94C9000A0B0C0D0E0F1B5BFD
:10007000306D0020001B5B33316D0000001B5B33D3
:10008000346D0000001B5B33356D0000001B5B33DB
:10009000366D0000001B5B33326D0000001B5B33CC
:1000A000336D0000001B5B33376D0000005B455271
:1000B000524F5D005B5741524E5D005B52454356C7
:1000C0005D005B53454E445D005B494E464F5D000D
:1000D0005B444255475D005B564552425D0000015E
:1000E0000203040500000000230026002900000090
:1000F00000080002010000030407000000000000E7
:10010000000000000000250028002B000000000077
:10011000240027002A000404040404040404020246
:100120000202020203030303030301020408102076
:1001300040800102040810200102040810203E0C37
:10014000DE0F11241FBECFEFD8E0DEBFCDBF23E00E
:10015000A4EAB2E001C01D92AD38B207E1F712E0A7
:10016000A0E0B1E0ECEAFAE202C005900D92A43AF8
:10017000B107D9F710E0C0EAD0E004C02197FE0132
:100180000E94CE12CF39D107C9F70E94060D0C94F8
:1001900049150C94000090E0FC01E65DFE4F2491AF
:1001A0008A5E9E4FFC018491882399F090E0880F2D
:1001B000991FFC01E45FFE4FA591B491FC01EE5F35
:1001C000FE4F859194918FB7F894EC91E22BEC93CC
:1001D0008FBF08950F93A0915C03B0915D03FA0166
:1001E00020813181FB0140815181ED91FC9111977A
:1001F0000688F789E02D04E0682FCD0109950F915D
:100200000895833081F028F4813099F08230A9F08C
:1002100008958730A9F08830C9F08430B1F4809116
:1002200080008F7D03C0809180008F778093800055
:10023000089584B58F7784BD089584B58F7DFBCFF5
:100240008091B0008F778093B00008958091B000C6
:100250008F7DF9CFCF93DF93E3EFF0E08491EFE26E
:10026000F1E0D491EBE1F1E0C491CC23A1F0811154
:100270000E940101EC2FF0E0EE0FFF1FEC51FF4F49
:10028000A591B491EC91ED2381E090E009F480E038
:10029000DF91CF91089580E090E0FACF1F93CF9344
:1002A000DF93282F30E0F901E251FF4F8491F901EB
:1002B000E65DFE4FD491F901EA5EFE4FC491CC2376
:1002C000A9F0162F81110E940101EC2FF0E0EE0F32
:1002D000FF1FEE5FFE4FA591B4918FB7F894EC919C
:1002E000111108C0D095DE23DC938FBFDF91CF9131
:1002F0001F910895DE2BF8CF3FB7F8948091BA0292
:100300009091BB02A091BC02B091BD0226B5A89B02
:1003100005C02F3F19F00196A11DB11D3FBFBA2F97
:10032000A92F982F8827BC01CD01620F711D811D57
:10033000911D42E0660F771F881F991F4A95D1F7DC
:1003400008952FB7F8946091B6027091B70280912A
:10035000B8029091B9022FBF08950895AF92BF924D
:10036000CF92DF92EF92FF920F931F93CF93DF9381
:100370006C017B018B01040F151FEB015E01AE18B0
:10038000BF08C017D10759F06991D601ED91FC91D2
:100390000190F081E02DC6010995892B79F7C501FF
:1003A000DF91CF911F910F91FF90EF90DF90CF9051
:1003B000BF90AF900895FC01538D448D252F30E000
:1003C000842F90E0821B930B541710F0CF96089562
:1003D00001970895FC01918D828D981761F0A28D8F
:1003E000AE0FBF2FB11D5D968C91928D9F5F9F7355
:1003F000928F90E008958FEF9FEF0895FC01918D0B
:10040000828D981731F0828DE80FF11D858D90E077
:1004100008958FEF9FEF0895FC01918D228D892F14
:1004200090E0805C9F4F821B91098F7399270895FC
:100430008EEB92E00E940C0221E0892B09F420E06F
:10044000822F089580E090E0892B29F00E94180205
:1004500081110C9400000895FC01A48DA80FB92F00
:10046000B11DA35ABF4F2C91848D90E001968F73DC
:100470009927848FA689B7892C93A089B1898C91FB
:10048000837080648C93938D848D981306C002884A
:10049000F389E02D80818F7D80830895EF92FF9214
:1004A0000F931F93CF93DF93EC0181E0888F9B8D97
:1004B0008C8D98131AC0E889F989808185FF15C051
:1004C0009FB7F894EE89FF896083E889F989808174
:1004D0008370806480839FBF81E090E0DF91CF9143
:1004E0001F910F91FF90EF900895F62E0B8D10E065
:1004F0000F5F1F4F0F731127E02E8C8D8E110CC0D4
:100500000FB607FCFACFE889F989808185FFF5CF1E
:10051000CE010E942C02F1CFEB8DEC0FFD2FF11DCF
:10052000E35AFF4FF0829FB7F8940B8FEA89FB895B
:1005300080818062CFCF0F931F93CF93DF938C0185
:10054000D0E0C0E0F801EC0FFD1F6491662341F09C
:100550008EEB92E00E944E02892B11F02196F2CF91
:10056000CE01DF91CF911F910F910895CF93DF932B
:10057000EC01888D8823B9F0AA89BB89E889F989BB
:100580008C9185FD03C0808186FD0DC00FB607FCF0
:10059000F7CF8C9185FFF2CF808185FFEDCFCE0123
:1005A0000E942C02E9CFDF91CF910895FC01828156
:1005B000938189130C944E010895CF93DF93EC013E
:1005C0008B810E944E018F8D98A18230910538F069
:1005D000880F991F880F991F05970197F1F7DF91F1
:1005E000CF91089561E00C94DD028EBD00000DB442
:1005F00007FEFDCF8EB50895FC019FB7F894268DB8
:10060000378D9FBF81E0232B09F480E0089590E0AF
:1006100080E008950895FC0162830895CF93DF93ED
:10062000EC012FB7F8948E819F811816190624F5D6
:10063000EA81FB8184E28E9FA0018F9F500D1124DF
:10064000E881F981E40FF51FDB0101900D928A9595
:10065000E1F78A819B816885798501960E94A612BF
:100660009B838A838E819F8101979F838E8381E004
:100670002FBFDF91CF91089580E0FACF48960C9478
:100680000E03CF93DF93EC012FB7F8944E815F8177
:10069000888599854817590724F5EC81FD8184E206
:1006A0008E9FA0018F9F500D1124A881B981A40FA6
:1006B000B51FFB0101900D928A95E1F78C819D8118
:1006C0006885798501960E94A6129D838C838E8110
:1006D0009F8101969F838E8381E02FBFDF91CF9111
:1006E000089580E0FACFFC01DB018C91811104C0F8
:1006F00097A19F5F97A39C93CF0148960C944103C9
:10070000FC0101900020E9F73197AF01481B590B1C
:10071000BC018EEB92E00C94AE01CF93DF930E946C
:100720008003EC0183E791E00E9480038C0F9D1F02
:10073000DF91CF910895FC0180819181009711F0A4
:100740000C9470130895FC0180819181009711F041
:100750000C9470130895CF93DF93EC0183E291E042
:1007600099838883CE0148960E94A303CE010D96FB
:10077000DF91CF910C94A303CF93DF93EC010E9400
:10078000AB03CE01DF91CF910C9470130E94B6148D
:10079000EF92FF920F931F93CF93DF93EC017B01B6
:1007A0008A0188819981009729F02A813B81241749
:1007B000350788F4B8016F5F7F4F0E94F9130097E7
:1007C00091F0998388831B830A832C813D81232B9D
:1007D00011F4FC0110821D830C83B701888199817B
:1007E0000E94D8140CC088819981009711F00E9452
:1007F0007013198218821D821C821B821A82CE01FC
:10080000DF91CF911F910F91FF90EF900895FC0120
:100810001182108213821282158214826115710571
:1008200051F0FB0101900020E9F73197AF01461B21
:10083000570B0C94C80308951F93CF93DF93CDB744
:10084000DEB72C970FB6F894DEBF0FBECDBF182FC2
:1008500066E771E0CE0107960E94070461E871E047
:10086000CE0101960E940704AE01495F5F4FBE01B1
:100870006F5F7F4F812F0E94EA00CE0101960E9498
:100880009B03CE0107960E949B032C960FB6F8940B
:10089000DEBF0FBECDBFDF91CF911F910895AF9204
:1008A000BF92CF92DF92EF92FF920F931F93CF935D
:1008B000DF93EC016B015A0179012417350720F40D
:1008C0008B2D5901E42EF82E65E771E0CE010E94D0
:1008D0000704D60114960D911C91A016B10628F5B7
:1008E000E016F10608F48701D601ED91FC9111970D
:1008F000E00FF11FF08010826D917C916A0D7B1DDD
:1009000061157105F1F0FB0101900020E9F73197C5
:10091000AF01461B570BCE010E94C803F601808130
:100920009181080F191FD801FC92CE01DF91CF9160
:100930001F910F91FF90EF90DF90CF90BF90AF90FD
:10094000089588819981009711F00E94701319828F
:1009500018821D821C821B821A82E0CFCF93DF9304
:10096000EC0165E871E00E940704CE01DF91CF91B0
:100970000895CF93DF93EC0160E971E00E940704D2
:10098000CE01DF91CF9108950F931F93FC01048155
:1009900015812681378140E052E16AE770E090E0FE
:1009A000041715072607370740F47695679557957E
:1009B00047959F5F9630A1F797E0292F206A2695EB
:1009C000909591702CBD9DBD60E0CF011F910F915E
:1009D0000C94DD021F93CF93DF93EC01162F0E943E
:1009E000C404812F0E94F5028887CE01DF91CF9148
:1009F0001F910C94F202CF93DF93EC0161EE0E9401
:100A0000EA048885DF91CF910895CF93DF93EC01BD
:100A10000E94C40480E50E94F502888783E70E9453
:100A2000F502CE01DF91CF910C94F2020F931F9348
:100A3000CF93DF93EC01062F142F0E94C404802F64
:100A400080620E94F5028887812F0E94F502CE0104
:100A5000DF91CF911F910F910C94F202FC01448918
:100A600041FD09C04260448B60E00E9416058BE1A5
:100A70009EE40197F1F70895DF92EF92FF920F93B2
:100A80001F93CF93DF938C01C62FD42EE52EF22E29
:100A90000E94C4048C2F80620E94F502F8018087B6
:100AA000CD2DDE2DFA94FFEFFF1621F089910E94E3
:100AB000F502F8CFC801DF91CF911F910F91FF9000
:100AC000EF90DF900C94F2021F93CF93DF93EC0131
:100AD000162F0E94C404812F0E94F50288878FEF91
:100AE0000E94F502182FCE010E94F202812FDF91A1
:100AF000CF911F910895CF93DF93EC010E942E05B3
:100B00004C8941604C8B60E0CE010E94160540E7A5
:100B100067E0CE010E94160561E0CE010E94D60278
:100B20008E89882351F0AE01465F5F4F288D6AE0C1
:100B3000CE01DF91CF910C943C0562E0CE010E9482
:100B40006405EEEDF0E0E49121E030E001C0220F19
:100B5000EA95EAF72095422F482362E0CE010E94F1
:100B600016051E8ADF91CF910895C0960C947B05DF
:100B70000F931F93CF93DF93EC018C01005D1F4F08
:100B800060E0C8010E94D602FE01E55BFF4F808154
:100B900091818230910538F0880F991F880F991F35
:100BA00005970197F1F7FE01E95BFF4F80818823EC
:100BB00019F0C8010E94FB04FE01EC5BFF4F40816D
:100BC0004E7F408360E0C8010E941605FE01E85B8D
:100BD000FF4FAE01415C5F4F20816AE0C8010E9477
:100BE0003C0562E0C8010E946405EEEDF0E0E4918E
:100BF00041E050E001C0440FEA95EAF7482B62E07B
:100C0000C801DF91CF911F910F910C9416050F939E
:100C10001F93CF93DF93CDB7DEB7CC58D1090FB672
:100C2000F894DEBF0FBECDBF8C019A01AB016DE71A
:100C300070E0CE0101960E941D1587E0809FB001F3
:100C4000819F700D112463557F4FCE018A579F4FAE
:100C50000E94EA0FB80183E0660F771F8A95E1F7DB
:100C60006B587F4FCE0182589F4F0E94EA0FCE01F2
:100C700082589F4F0E948003CE018A579F4F0E9447
:100C8000800383E790E00E949B02CE0101960E94C0
:100C90008D038EE690E00E949B0281E0C457DF4FF7
:100CA0000FB6F894DEBF0FBECDBFDF91CF911F917D
:100CB0000F910895CF93DF93CDB7DEB7AE01495FB3
:100CC0005F4F67E971E090E080E00E940706DF91E6
:100CD000CF910895CF93DF93CDB7DEB7AE01495FD3
:100CE0005F4F62EB71E084E090E00E940706DF91C5
:100CF000CF910895CF93DF93CDB7DEB7AE01475FB5
:100D00005F4F6F8178858D819E810E940706DF91FC
:100D1000CF910895FB01AB01445F5F4F6C5F7F4F44
:100D20003381A081B181E281333030F58EEC91E0E6
:100D300026E05F934F937F936F931F923F931F9291
:100D4000AF931F92BF931F92EF939F938F9384ED66
:100D500091E09F938F931F922F930E947A068DB7F5
:100D60009EB742960FB6F8949EBF0FBE8DBF0895F2
:100D700085E791E023E0DDCF8111FACF85E791E0AF
:100D800022E0D7CFCF93DF93CDB7DEB7AE014B5F75
:100D90005F4FFA0161917191AF0181E090E00E9493
:100DA0000706DF91CF9108954F925F926F927F92E5
:100DB0008F929F92AF92BF92EF92FF920F931F93E9
:100DC000CF93DF938C01F22EFC016283EC01E0965D
:100DD000EFB6F8948091A402811124C0E0E2F1E022
:100DE0008491E4E3F1E09491E82FF0E0EE0FFF1F2F
:100DF000E45FFE4FA591B491EC91E92321F461E009
:100E00008AE00E944E018AE00E94CB008CB580618E
:100E10008CBD8CB580648CBD8DE00E94CB008BE0D6
:100E20000E94CB008091A4028F5F8093A402EFBE4A
:100E3000F80182A98F3F09F4C6C093A99F3F09F426
:100E4000C2C0891731F00E94CB00F80183A90E942B
:100E5000CB0060E0CE010E94D60261E0CE010E948C
:100E6000DD020E947C012B013C0195E0892E912C32
:100E7000A12CB12C0E947C0164197509860997097F
:100E8000683E734081059105A8F3F1E08F1A91083F
:100E9000A108B10828EE420E23E0521E611C711C0D
:100EA00081149104A104B10429F74FE564E0CE0157
:100EB0000E94160566E0CE010E94640545E550E0FB
:100EC00060E070E0F801E55BFF4F4083518362838F
:100ED0007383482F477D66E0CE010E94160566E0C9
:100EE000CE010E9464056DE1CE010E946405E82EEA
:100EF000CE010E9405056DE1CE010E946405F80156
:100F0000EB5BFF4F91E0E81290E09083882351F073
:100F1000E81203C0CE010E94050540E06DE1CE015C
:100F20000E941605F801E95BFF4F108240E06CE17A
:100F3000CE010E941605F801E75BFF4F10824FE3D8
:100F400061E0CE010E94160543E062E0CE010E94FE
:100F5000160580E2F80181AF81E1E82EF80141AD8C
:100F60006E2DCE010E941605E394F7E1EF12F6CF45
:100F700043E063E0CE010E94160585E0F801E85BDE
:100F8000FF4F80834CE465E0CE010E94160540E7E8
:100F900067E0CE010E94160562EECE010E94EA04CF
:100FA000CE010E94FB044CE060E0CE010E941605D9
:100FB00060E0CE010E946405F801EC5BFF4F808386
:100FC000CE010E942E054F2D4D3708F04DE765E00C
:100FD000CE010E941605E9E6F0E06491F801E85BB5
:100FE000FF4FA8014D5A5F4F2081CE010E943C0562
:100FF00062E0CE010E946405EFEDF0E0E49141E093
:1010000050E001C0440FEA95EAF7482B62E0CE01B8
:101010000E941605CE010E947B0581E0F80187A79A
:10102000DF91CF911F910F91FF90EF90BF90AF9004
:101030009F908F907F906F905F904F900895CF9288
:10104000DF92EF92FF920F931F93CF93DF93CDB771
:10105000DEB7A4970FB6F894DEBF0FBECDBF8C01EC
:10106000DC019D968D919C919E97009791F0019740
:1010700009F44FC0A4960FB6F894DEBF0FBECDBFE3
:10108000DF91CF911F910F91FF90EF90DF90CF9064
:101090000895ED91FC9102A0F3A1E02DC8010995FE
:1010A000882339F00E94A101F80163A374A385A3EA
:1010B00096A32FB7F894D80153968D919C912FBF8A
:1010C00018161906BCF60E94A101F801C3A0D4A00D
:1010D000E5A0F6A06C197D098E099F096B3071059A
:1010E0008105910538F281E090E096A785A70190EF
:1010F000F081E02D068CF78DE02DC80109950E9446
:10110000A101D80193966D937D938D939C939697AF
:10111000B1CFBE016F5F7F4FC8010D960E940E03D5
:101120008823A1F0D801ED91FC9100A0F1A1E02D60
:10113000BE016F5F7F4FC8010995882339F00E9477
:10114000A101F80163A374A385A396A30E94A10142
:10115000D8019396CD90DD90ED90FC9096976C1908
:101160007D098E099F096B3071058105910508F491
:1011700081CF9E961C921E929D97ED91FC91048CBE
:10118000F58DE02DC80109950E94A101F80163A326
:1011900074A385A396A36ECF8F929F92AF92BF92B6
:1011A000CF92DF92EF92FF920F931F93CF93DF9333
:1011B000CDB7DEB7C657D1090FB6F894DEBF0FBE64
:1011C000CDBF5C017C0180E3E80EF11C67E1C70143
:1011D0000E94640580FD56C1F501E75BFF4F8081E9
:1011E00010E000E2811107C0F50111AD012F1134AB
:1011F00008F000E4101BC7010E94C40481E60E94AD
:10120000F502F50180AFCE0101966C01015038F076
:101210008FEF0E94F502F60181936F01F7CF115015
:1012200020F08FEF0E94F502FACFC7010E94F20270
:1012300040E467E0C7010E9416057E01F1E4EF0E6D
:10124000F11C84E2F70111928A95E9F7BE016A5F09
:101250007F4FCE018F589F4F0E9407046BEE71E0C5
:10126000CE0185599F4F0E940704E1964EAD5FADB8
:10127000E197E7968EAD9FADE7978E010B591F4F13
:101280008417950708F49CC0E3968EAD9FADE39755
:10129000009709F495C0AD966EAD7FADAD97611521
:1012A000710509F48DC00E94DF14892B09F088C0F4
:1012B0006DEF71E0C8010E940704E7962EAD3FADC7
:1012C000E797F801448155812417350708F475C064
:1012D000E3968EAD9FADE397009709F46EC06081F1
:1012E00071816115710509F468C0241B350B820FEB
:1012F000931F0E94CF14DD24D394892B09F4D12CA1
:10130000C8010E949B03CE0185599F4F0E949B03F9
:10131000DD2009F458C0F801118210821382128274
:1013200015821482E3966EAD7FADE397611571056A
:1013300039F0E7964EAD5FADE797C8010E94C8034C
:101340001F930F9387E991E09F938F930E945A0612
:10135000C8010E949B030F900F900F900F9010E018
:10136000CE018F589F4F0E949B03112349F0898122
:10137000F70181838A8182838B8180838D8183833E
:10138000B70180E00E948A06B701C50148960E9415
:101390004103CA58DF4F0FB6F894DEBF0FBECDBF72
:1013A000DF91CF911F910F91FF90EF90DF90CF9041
:1013B000BF90AF909F908F900895DD24D394A0CFDD
:1013C000DD24D394A0CFE7962EAD3FADE797215013
:1013D000310941E050E0BE016F587F4FCE01855981
:1013E0009F4F0E944F04E1968EAD9FADE197892BF0
:1013F00071F0AD968EAC9FACAD976CE770E0C40118
:101400000E94C4146C01C818D908892B19F4CC2483
:10141000CA94DC2C960150E040E0BE0165597F4F34
:10142000C8010E944F04F80160817181C7010496D0
:101430000E94D814C8010E949B03FFEFCF16DF065D
:10144000F1F0E1962EAD3FADE197A6014F5F5F4F02
:10145000BE0165597F4FC8010E944F04F8016081A9
:101460007181C7010C960E94D814C8010E949B0389
:10147000CE0185599F4F0E949B0311E071CFF70168
:101480001486F6CF80E085CF4F925F926F927F9265
:101490008F929F92AF92BF92CF92DF92EF92FF9284
:1014A0000F931F93CF93DF93CDB7DEB7C054D1090D
:1014B0000FB6F894DEBF0FBECDBF7C016B01CB0130
:1014C0000C969F938F9308979F938F93FB01838133
:1014D0001F928F931F921F9280811F928F93828100
:1014E0001F928F9381811F928F938DEE91E09F9336
:1014F0008F931F9280E48F93CE0101964C019F93AE
:101500008F930E94ED14182F8BEF810F8C8357015E
:1015100090E3A90EB11C1B5FF701E75BFF4F0FB60D
:10152000F894DEBF0FBECDBF8081811116C0F701D8
:1015300001AD011708F4102F011BC5010E94C4045E
:1015400080EA0E94F502F70180AF115068F0F401C3
:1015500081914F010E94F502F8CF01E0111100E0E6
:10156000113258F310E2E9CF015020F080E00E94E0
:10157000F502FACFC5010E94F20261E0C5010E94A6
:10158000D6020E94A1012B013C016FEFC5010E9410
:10159000EA04F70180AD807371F50E94A10164191E
:1015A000750986099709603671058105910568F30B
:1015B000F701E65BFF4F81E0808310E0B60181E038
:1015C0000E948A06812FC05CDF4F0FB6F894DEBF01
:1015D0000FBECDBFDF91CF911F910F91FF90EF9084
:1015E000DF90CF90BF90AF909F908F907F906F9043
:1015F0005F904F90089560E0C5010E94D60240E7D9
:1016000067E0C5010E941605F70180AD11E084FF77
:10161000D5CFC5010E94FB04D0CFBF92CF92DF92FD
:10162000EF92FF920F931F93CF93DF93CDB7DEB767
:10163000A4970FB6F894DEBF0FBECDBF7C01122F6A
:10164000B32E9E012F5F3F4F690184E2F901119291
:101650008A95E9F76A830B835F934F931F9288E023
:101660008F93CE0105969F938F930E94ED14BF92A6
:101670001F931F9288E18F93CE010D969F938F93B6
:101680000E94ED1483E08C83F70187A18F5F87A30D
:101690008983B601C7010D960E9441030FB6F894E5
:1016A000DEBF0FBECDBFA4960FB6F894DEBF0FBE4F
:1016B000CDBFDF91CF911F910F91FF90EF90DF9001
:1016C000CF90BF9008957F936F931F922AE02F933E
:1016D00003969F938F930E94ED140F900F900F909D
:1016E0000F900F900F9008951F920F920FB60F92C8
:1016F00011242F933F938F939F93AF93BF93809128
:10170000B6029091B702A091B802B091B90230919F
:10171000B50223E0230F2D3758F50196A11DB11D09
:101720002093B5028093B6029093B702A093B802BB
:10173000B093B9028091BA029091BB02A091BC0211
:10174000B091BD020196A11DB11D8093BA02909384
:10175000BB02A093BC02B093BD02BF91AF919F9119
:101760008F913F912F910F900FBE0F901F90189562
:1017700026E8230F0296A11DB11DD2CF1F920F9212
:101780000FB60F9211242F933F934F935F936F9354
:101790007F938F939F93AF93BF93EF93FF938EEBC2
:1017A00092E00E942C02FF91EF91BF91AF919F9127
:1017B0008F917F916F915F914F913F912F910F90FA
:1017C0000FBE0F901F9018951F920F920FB60F9299
:1017D00011242F938F939F93EF93FF93E091CE0269
:1017E000F091CF028081E091D402F091D50282FD88
:1017F0001BC090818091D7028F5F8F732091D80298
:10180000821741F0E091D702F0E0E254FD4F958F4E
:101810008093D702FF91EF919F918F912F910F901D
:101820000FBE0F901F9018958081F4CFCF93DF9358
:10183000EC011B821A821D821C821F821E8282E0A2
:1018400090E0998788871A86288539852F3883E024
:10185000380788F444E2429FC001439F900D112451
:10186000009711F481E090E00E94D412998388835C
:10187000DF91CF9108958FEF9FEFF6CF0F931F93D6
:10188000CF93DF93EEEBF2E01382128288EE93E0C7
:10189000A0E0B0E084839583A683B78381E191E0E3
:1018A0009183808385EC90E09587848784EC90E039
:1018B0009787868780EC90E0918B808B81EC90E01D
:1018C000938B828B82EC90E0958B848B86EC90E0FE
:1018D000978B868B118E128E138E148EC9E6D3E0F1
:1018E000188219821A821B821C8265E771E08EE6DB
:1018F00093E00E94070411E01B871C861D861E864C
:101900001F8665E771E089E793E00E9407041E8A5D
:101910001F8A188E198E1A8E80E395E7A0E0B0E03A
:101920008B8F9C8FAD8FBE8F1F8E10925D03109298
:101930005C0389E590E00E94D412EC0183E291E01F
:10194000998388831A820AE0FE013396DF01802F93
:101950001D928A95E9F7CE010D960E94160CCE01D4
:1019600048960E94160C0E94A1016BA37CA38DA334
:101970009EA31FA218A619A68DE78AA78BE78BA79F
:101980008CE78CA71EA61DA61FA68DE491E0998367
:10199000888389E08AAB0BAB80E896E9A8E9B0E0E0
:1019A0008CAB9DABAEABBFAB80E289AFFE01EB5B16
:1019B000FF4F108231961082329685E080833196F7
:1019C000108331961082359685E090E0A0E0B0E07B
:1019D00080839183A283B3838BE593E099AB88AB3B
:1019E000DE01AD5ABF4F86E0E7E0F1E001900D92D5
:1019F0008A95E1F7D0935D03C0935C038EE593E095
:101A0000DF91CF911F910F910C94160CCF93DF9320
:101A1000CDB7DEB7E4970FB6F894DEBF0FBECDBFEB
:101A2000789484B5826084BD84B5816084BD85B5B9
:101A3000826085BD85B5816085BD80916E008160C5
:101A400080936E001092810080918100826080936B
:101A5000810080918100816080938100809180006D
:101A60008160809380008091B10084608093B10098
:101A70008091B00081608093B00080917A00846092
:101A800080937A0080917A00826080937A008091BE
:101A90007A00816080937A0080917A0080688093D8
:101AA0007A001092C100E091CE02F091CF0282E064
:101AB0008083E091CA02F091CB021082E091CC02C7
:101AC000F091CD0280E180831092D602E091D202A3
:101AD000F091D30286E08083E091D002F091D102B0
:101AE000808180618083E091D002F091D102808179
:101AF00088608083E091D002F091D102808180687B
:101B00008083E091D002F091D10280818F7D80832B
:101B100086E092E00E948D0384E080936D0366E787
:101B200071E09E012F5F3F4F7901C9010E940704B8
:101B300080916E0390916F03009709F425C169812C
:101B40007A816115710509F41DC1409170035091AE
:101B500071032D813E814217530708F413C10E947F
:101B6000D8148D819E8190937303809372031E829B
:101B70001D82C7010E949B0380916D0391E081113A
:101B800090E090937403882319F085E00E94CB00C5
:101B900080915C0390915D03DC01ED91FC9104A0C8
:101BA000F5A1E02D01E02CE430E040E050E0609150
:101BB0006D030995E0915C03F0915D0387A5809327
:101BC000810380E192E00E948D0360915C0370913B
:101BD0005D03DB01ED91FC910190F081E02DC701E7
:101BE000099586E791E09F938F931F9284E08F93EE
:101BF000FF92EF9282EB91E09F938F930E946A068F
:101C0000C7010E949B0380E395E7A0E0B0E08093CA
:101C1000840390938503A0938603B093870381E0A8
:101C2000809383030E94A1016093690370936A0308
:101C300080936B0390936C036EE172E0C7010E9486
:101C400007044EE653E0B70180E00E94EA00C701B6
:101C50000E949B030FB6F894DEBF0FBECDBF32E2E9
:101C6000232E32E0332E6E013DE0C30ED11C8E01D7
:101C70000B5F1F4F24E5422E22E0522E80918303FA
:101C8000882341F10E94A1012091690330916A03E8
:101C900040916B0350916C03621B730B840B950B8B
:101CA00020918403309185034091860350918703EE
:101CB000261737074807590768F4109283033F92A5
:101CC0002F921F9284E08F930E947A060F900F90BC
:101CD0000F900F9081E080937F030E94A101609399
:101CE00075037093760380937703909378038091C4
:101CF0005C0390915D03DC01ED91FC91028CF38D0E
:101D0000E02D09958091880390E3A92E95E7B92EDF
:101D1000882321F088E8A82E83E1B82E8091000165
:101D2000882309F448C00E942A0162E072E0892BEE
:101D300011F06FEF71E0CE0185960E94070461E516
:101D400072E0C7010E940704AE014B5D5F4FB7010F
:101D500080E00E94EA00C7010E949B03CE018596A5
:101D60000E949B0381E0809388030E94A1016093FD
:101D7000B1027093B2028093B3029093B4021092B6
:101D8000000133C00E94701389819A8190936F0380
:101D900080936E038B819C81909371038093700379
:101DA0008D819E8190937303809372031A821982AE
:101DB0001C821B82DCCE0E94A1016090B102709057
:101DC000B2028090B3029090B4029B01AC0126193C
:101DD000370948095909C501BB0CAA0BBB0B82176F
:101DE0009307A407B50708F49ECF80915C039091F8
:101DF0005D03DC01ED91FC91008CF18DE02DB701CC
:101E00000995882309F48FC08091AD029091AE02AC
:101E100001969093AE028093AD02DF92CF921F9312
:101E20000F9389811F928F938B811F928F935F9263
:101E30004F921F9282E08F930E947A066EE672E0C4
:101E4000C8010E94CF140FB6F894DEBF0FBECDBFFD
:101E5000892BC9F46FEF71E0C6010E94CF14892B62
:101E6000C1F561E085E00E944E0141E752E05F93D9
:101E70004F930E94C2060F900F908B810E941C040A
:101E800081E08093000162E972E0C8010E94CF14F2
:101E9000892B09F03FC066E771E0CE018B960E9466
:101EA000070467E972E0CE0185960E940704AE013F
:101EB000455D5F4FBE016B5D7F4F8B810E94EA00E5
:101EC000CE0185960E949B03CE018B960E949B03B8
:101ED0002AC062E072E0C6010E94CF14892B49F447
:101EE00060E085E00E944E01AFE7B2E0BF93AF93A0
:101EF000C0CF6EE872E0C6010E94CF14892B99F41E
:101F00000E942A0161E0892B09F060E085E00E94CF
:101F10004E01B3CF61E871E0C8010E94CF14892B54
:101F200089F41092880310927F0380E090E0892B5F
:101F300009F4A4CE0E941802882309F49BCE0E94C3
:101F4000000098CE6CE972E0C8010E94CF14892B82
:101F500051F367E972E0C8010E94CF14892B21F484
:101F60008B810E941C04DFCF61E572E0C8010E94F2
:101F7000CF14892B59F460EA72E0C6010E94CF1495
:101F8000892B71F781E080930001CDCF6EE172E083
:101F9000C8010E94CF14892B31F66EE172E0CE01A8
:101FA00085960E9407044EE653E0BE016B5D7F4FAD
:101FB0008B810E94EA00CE01859688CF8EE593E062
:101FC0000E94A30389E793E00E949B038EE693E0BF
:101FD0000C949B03FB01DC0105900D920020E1F7BE
:101FE0000895ABE0B0E0E7EFFFE00C946F127C01E6
:101FF0003B018A01FC0117821682838181FFC8C1DF
:10200000CE0101965C01F7019381F30193FD859167
:1020100093FF81913F01882309F453C1853239F43C
:1020200093FD859193FF81913F01853229F4B7019A
:1020300090E00E94E111E7CF912C212C312CFFE19F
:10204000F31538F08B3211F190F4803209F18332BC
:1020500029F137FC3CC020ED280F2A3050F536FE20
:1020600020C08AE0989E200D1124922E06C08D3249
:1020700091F0803371F7689430F8F30193FD859106
:1020800093FF81913F018111DACF21C0689431F82B
:10209000689432F8F2CF689433F8EFCF689434F84C
:1020A000ECCFEAE02E9E200D1124222E689435F804
:1020B000E4CF8E3229F436FC04C1689436F8DDCFC3
:1020C0008C3619F4689437F8D8CF8836B1F2982F47
:1020D0009F7D95549330E0F08336A1F18337C1F1B1
:1020E000833509F063C02801F2E04F0E511CF8015E
:1020F000C080D180692D70E036FC02C06FEF7FEFA9
:10210000C6010E94CB114C01689437F882010AC0C5
:102110000C5F1F4FFFE3F98388248394912C6501A2
:10212000E89437F833FE2DC0522C8114910471F5D8
:10213000552009F468CFB70180E290E00E94E111D8
:102140005A94F6CFF801808189830E5F1F4FE4CF48
:102150002801F2E04F0E511CF801C080D180692D9A
:1021600070E036FC02C06FEF7FEFC6010E94D6110F
:102170004C018201D5CFB70180E290E00E94E111CD
:102180002A942814190409F0B0F7CECFF60137FCD1
:10219000859137FE81916F01B70190E00E94E111B6
:1021A00051105A94F1E08F1A9108BFCF843619F07C
:1021B000893609F077C0F80137FE6BC06081718104
:1021C000828193810C5F1F4FF32DFF763F2E97FF87
:1021D00009C090958095709561957F4F8F4F9F4F67
:1021E000689437F82AE030E0A5010E941112C82E49
:1021F000CA188C2C432C36FE0CC0E89440F8C91445
:1022000040F434FE05C032FC03C0F32DFE7E4F2E99
:10221000892C44FE95C0FE01EC0DF11D80818033B8
:1022200009F087C0242D297E422E842D8870582ED7
:1022300043FC95C040FE8FC09C2C821418F42C0CDB
:10224000922C981844FE91C0B70180E390E00E9460
:10225000E11142FE09C088E790E041FE02C088E536
:1022600090E0B7010E94E111C91408F48AC0CA9431
:10227000D12C9FEFC91AD90ACA0CDB1CF601829136
:102280006F01B70190E00E94E111AC14BD04B1F7F9
:102290004FCF60817181072E000C880B990B0E5F68
:1022A0001F4F92CFD32CE894D4F82AE030E0853742
:1022B00039F1232D297FD22E8F3601F148F488354C
:1022C000A9F0F701868197812B96E2E10C948B129D
:1022D000803749F08837A9F7D4FE02C06894D2F855
:1022E00020E130E00DC06894D4F8F6CF34FE03C08E
:1022F000822F8660D82E20E132E002C028E030E054
:10230000F801D7FE0FC060817181828193810C5FDB
:102310001F4FA5010E941112C82ECA183D2CE89427
:1023200037F867CF6081718190E080E00E5F1F4FCA
:10233000F0CF42FC02C0839478CF8394839475CF0E
:10234000842D867809F471CFF6CFB70180E290E052
:102350000E94E11183948214C0F3512C73CF522C4C
:102360005818821408F46ECFF8CF842D867809F4BB
:102370007BCF8BE241FE80E247FC8DE2B70190E02B
:1023800071CFB70180E390E00E94E1119A946CCF85
:102390008FEF9FEF99CFFC010590615070400110C5
:1023A000D8F7809590958E0F9F1F0895FC0161507E
:1023B000704001900110D8F7809590958E0F9F1F67
:1023C00008950F931F93CF93DF93182F092FEB01DD
:1023D0008B8181FD09C01FEF0FEF812F902FDF91BF
:1023E000CF911F910F91089582FF14C02E813F81DC
:1023F0008C819D81281739073CF4E881F981CF0150
:1024000001969983888310838E819F8101969F8393
:102410008E83E3CFE885F985812F0995892BA1F378
:10242000DACFFA01AA27283051F1203181F1E8945E
:102430006F936E7F6E5F7F4F8F4F9F4FAF4FB1E0B7
:102440003ED0B4E03CD0670F781F891F9A1FA11DB2
:10245000680F791F8A1F911DA11D6A0F711D811DB3
:10246000911DA11D20D009F468943F912AE0269F78
:1024700011243019305D3193DEF6CF010895462FD7
:102480004770405D4193B3E00FD0C9F7F6CF462FB8
:102490004F70405D4A3318F0495D31FD4052419321
:1024A00002D0A9F7EACFB4E0A695979587957795DE
:1024B0006795BA95C9F700976105710508959B0165
:1024C000AC010A2E06945795479537952795BA95EE
:1024D000C9F7620F731F841F951FA01D08952F92C7
:1024E0003F924F925F926F927F928F929F92AF92A4
:1024F000BF92CF92DF92EF92FF920F931F93CF93F1
:10250000DF93CDB7DEB7CA1BDB0B0FB6F894DEBF87
:102510000FBECDBF09942A88398848885F846E84AD
:102520007D848C849B84AA84B984C884DF80EE80F7
:10253000FD800C811B81AA81B981CE0FD11D0FB600
:10254000F894DEBF0FBECDBFED01089597FB072EB7
:1025500016F4009407D077FD09D00E94BA1207FC48
:1025600005D03EF4909581959F4F089570956195A3
:102570007F4F0895AA1BBB1B51E107C0AA1FBB1FB9
:10258000A617B70710F0A61BB70B881F991F5A95FF
:10259000A9F780959095BC01CD010895EE0FFF1F1E
:1025A0000590F491E02D09940F931F93CF93DF933F
:1025B0008230910510F482E090E0E0918B03F0917D
:1025C0008C0330E020E0B0E0A0E0309799F42115D2
:1025D000310509F44AC0281B390B24303105D8F5E0
:1025E0008A819B816115710589F1FB019383828347
:1025F000FE0111C0408151810281138148175907A2
:10260000E0F04817590799F4109761F012960C936F
:10261000129713961C933296CF01DF91CF911F91A1
:102620000F91089500938B0310938C03F4CF211521
:10263000310551F04217530738F0A901DB019A0127
:10264000BD01DF01F801C1CFEF01F9CF90938C03F9
:1026500080938B03CDCFFE01E20FF31F8193919303
:102660002250310939832883D7CF209189033091B3
:102670008A03232B41F4209103013091040130930C
:102680008A032093890320910101309102012115D1
:10269000310541F42DB73EB7409105015091060137
:1026A000241B350BE0918903F0918A03E217F307AD
:1026B000A0F42E1B3F0B2817390778F0AC014E5FB2
:1026C0005F4F2417350748F04E0F5F1F50938A0362
:1026D00040938903819391939FCFF0E0E0E09CCFFA
:1026E000CF93DF930097E9F0FC01329713821282B7
:1026F000A0918B03B0918C03ED0130E020E01097A6
:10270000A1F420813181820F931F209189033091A0
:102710008A032817390709F061C0F0938A03E09310
:102720008903DF91CF910895EA01CE17DF07E8F51D
:102730004A815B819E0141155105B1F7E901FB8397
:10274000EA8349915991C40FD51FEC17FD0761F435
:10275000808191810296840F951FE9019983888376
:10276000828193819B838A83F0E0E0E012968D91D1
:102770009C9113970097B9F52D913C911197CD013C
:102780000296820F931F2091890330918A032817A4
:10279000390739F6309751F510928C0310928B035C
:1027A000B0938A03A0938903BCCFD383C2834081B3
:1027B0005181840F951FC817D90761F44E5F5F4F91
:1027C00088819981480F591F518340838A819B8159
:1027D000938382832115310509F0B0CFF0938C03E8
:1027E000E0938B039ECFFD01DC01C0CF13821282E8
:1027F000D7CFB0E0A0E0EFEFF3E10C9471128C01C1
:10280000009751F4CB010E94D4128C01C801CDB7BE
:10281000DEB7E0E10C948D12FC01E60FF71F9C017E
:1028200022503109E217F30708F49DC0D901CD9178
:10283000DC911197C617D70798F0C530D10530F352
:10284000CE0104978617970708F3C61BD70B22976C
:10285000C193D1936D937C93CF010E947013D6CF17
:102860005B01AC1ABD0A4C018C0E9D1EA0918B031E
:10287000B0918C03512C412CF12CE12C109731F5A7
:102880008091890390918A038815990509F05CC0AD
:102890004616570608F058C0809101019091020138
:1028A000009741F48DB79EB7409105015091060104
:1028B000841B950BE817F90708F055C0F0938A03BD
:1028C000E0938903F90171836083A0CF8D919C917E
:1028D000119712966C90129713967C901397A815E7
:1028E000B90559F56C0142E0C40ED11CCA14DB04D1
:1028F00020F1AC014A195B09DA011296159780F0B4
:102900006282738251834083D9016D937C93E11479
:10291000F10471F0D7011396FC93EE93129776CFE2
:1029200022968C0F9D1FF90191838083F301EFCFD5
:10293000F0938C03E0938B0369CF4816590608F493
:102940002C017D01D3019ACFCB010E94D4127C01CE
:10295000009749F0AE01B8010E94BB14C8010E9463
:102960007013870153CF10E000E050CF81E090E07A
:10297000F8940C944915FB01DC0102C001900D9202
:1029800041505040D8F70895FC018191861721F0FD
:102990008823D9F7992708953197CF010895FB012E
:1029A000DC018D91019080190110D9F3990B0895E4
:1029B000FB01DC0101900D920020E1F70895FB017D
:1029C000DC014150504030F08D910190801919F494
:1029D0000020B9F7881B990B0895AEE0B0E0E3EF53
:1029E000F4E10C947D120D891E898F89988D26E063
:1029F0002C831A83098397FF02C080E090E8019737
:102A00009E838D83AE01455E5F4F698D7A8DCE01C9
:102A100001960E94F10F4D815E8157FD0AC02F8102
:102A20003885421753070CF49A01020F131FF8015F
:102A300010822E96E4E00C949912AEE0B0E0E3E24E
:102A4000F5E10C947D128C01FA0186E08C831A83E7
:102A5000098377FF02C060E070E8615071097E83EE
:102A60006D83A901BF01CE0101960E94F10F4D8136
:102A70005E8157FD0AC02F813885421753070CF439
:102A80009A01020F131FF80110822E96E4E00C94B5
:102A9000991210E0C0EAD0E004C0FE010E94CE12FC
:0C2AA0002196C13AD107C9F7F894FFCF86
:102AAC000100008D0380004E524632344C00000071
:102ABC00004E02AE01DB01B6020C02EA01FE01007F
:102ACC00000000B904630B0B030A03AD01070307F5
:102ADC0003FC020000000073030D0B3E031F08AD46
:102AEC0001AD01C603C603C60300000000AE0463BB
:102AFC000B0B030A03AD0107030703FC02AB03BC7A
:102B0C000373030D0B3E031F08B505B805440ACC2F
:102B1C0008D4060D0A0073656E736F7262656E647D
:102B2C000061636B00526164696F4E52463234002F
:102B3C0044756D6D6965004D656E736167656D20DB
:102B4C006D616C20666F726D61746164613A2025F1
:102B5C007300526164696F206475706C6578202510
:102B6C0073205465726D3A202564202573004D4501
:102B7C005348200025735B25642D25643A25645D3C
:102B8C00282564292025737C2573007B002563256B
:102B9C00632563256325637B25737C25737D006F1B
:102BAC006E006F666600496E696369616E646F00E2
:102BBC00526164696F20737461727465640070751E
:102BCC006200446973636F766572792074696D6510
:102BDC006F757420726561636865642C2073746F03
:102BEC007070696E6720646973636F766572792E95
:102BFC000073740048616E646C65642066726F6D5E
:102C0C002025643A25642C2025737C25730067707D
:102C1C00004D75646F752070617261204F4E004DD0
:102C2C0075646F752070617261204F464600746F39
:102C3C00670070696E6700706F6E67006E616B0085
:042C4C006765740044
:00000001FF
